:020000040000FA
:1000000002090C53F1F353F2DF2222020E0AE70930
:10001000F608DFFA8046E709F208DFFA803E8882B8
:100020008C83E709F0A3DFFA8032E309F608DFFAF0
:100030008078E309F208DFFA807088828C83E30914
:10004000F0A3DFFA806489828A83E0A3F608DFFAEE
:10005000805889828A83E0A3F208DFFA804C80D23C
:1000600080FA80C680D4806980F28033801080A6B8
:1000700080EA809A80A880DA80E280CA8033898210
:100080008A83ECFAE493A3C8C582C8CCC583CCF0BC
:10009000A3C8C582C8CCC583CCDFE9DEE7800D8963
:1000A000828A83E493A3F608DFF9ECFAA9F0EDFB6A
:1000B0002289828A83ECFAE0A3C8C582C8CCC583B2
:1000C000CCF0A3C8C582C8CCC583CCDFEADEE8800B
:1000D000DB89828A83E493A3F208DFF980CC88F07D
:1000E000EF60010E4E60C388F0ED2402B4040050AE
:1000F000B9F582EB2402B4040050AF2323458223D8
:1001000090005E73BB010CE58229F582E5833AF528
:1001100083E0225006E92582F8E622BBFE06E925A7
:1001200082F8E222E58229F582E5833AF583E493B9
:1001300022EF8DF0A4A8F0CF8CF0A428CE8DF0A4EF
:100140002EFE22BC000BBE0029EF8DF084FFADF027
:1001500022E4CCF875F008EF2FFFEE33FEEC33FC11
:10016000EE9DEC984005FCEE9DFE0FD5F0E9E4CE47
:10017000FD22EDF8F5F0EE8420D21CFEADF075F016
:1001800008EF2FFFED33FD4007985006D5F0F2221F
:10019000C398FD0FD5F0EA22C5F0F8A3E028F0C51A
:1001A000F0F8E582158270021583E038F022BB0179
:1001B0000A89828A83E0F5F0A3E022500687F009DD
:1001C000E71922BBFE07E3F5F009E3192289828AC9
:1001D00083E493F5F074019322BB0110E58229F5C5
:1001E00082E5833AF583E0F5F0A3E0225009E925A2
:1001F00082F886F008E622BBFE0AE92582F8E2F5DD
:10020000F008E222E5832AF583E993F5F0A3E99368
:1002100022BB010A89828A83F0E5F0A3F02250060E
:10022000F709A7F01922BBFE06F3E5F009F319223E
:10023000F8BB0111E58229F582E5833AF583E8F000
:10024000E5F0A3F0225009E92582C8F608A6F022BD
:10025000BBFE09E92582C8F2E5F008F222EF2BFF88
:10026000EE3AFEED39FDEC38FC22E88FF0A4CC8BA1
:10027000F0A42CFCE98EF0A42CFC8AF0EDA42CFC5C
:10028000EA8EF0A4CDA8F08BF0A42DCC3825F0FD9B
:10029000E98FF0A42CCD35F0FCEB8EF0A4FEA9F094
:1002A000EB8FF0A4CFC5F02ECD39FEE43CFCEAA4E0
:1002B0002DCE35F0FDE43CFC2275F008758200EF90
:1002C0002FFFEE33FECD33CDCC33CCC58233C58288
:1002D0009BED9AEC99E58298400CF582EE9BFEED41
:1002E0009AFDEC99FC0FD5F0D6E4CEFBE4CDFAE410
:1002F000CCF9A88222B800C1B90059BA002DEC8B04
:10030000F084CFCECDFCE5F0CBF97818EF2FFFEEDF
:1003100033FEED33FDEC33FCEB33FB10D703994098
:1003200004EB99FB0FD8E5E4F9FA227818EF2FFFD8
:10033000EE33FEED33FDEC33FCC933C910D7059B1A
:10034000E99A4007EC9BFCE99AF90FD8E0E4C9FA76
:10035000E4CCFB2275F010EF2FFFEE33FEED33FD02
:10036000CC33CCC833C810D7079BEC9AE899400A25
:10037000ED9BFDEC9AFCE899F80FD5F0DAE4CDFBA3
:10038000E4CCFAE4C8F922E8600FECC313FCED13E7
:10039000FDEE13FEEF13FFD8F122E8600FEFC33339
:1003A000FFEE33FEED33FDEC33FCD8F122E0FCA38D
:1003B000E0FDA3E0FEA3E0FF22ECF0A3EDF0A3EE4E
:1003C000F0A3EFF022A42582F582E5F03583F583D2
:1003D00022EBF0A3EAF0A3E9F022EC8EF0A4CCC566
:1003E000F0CCCDF8EFA4CEC5F02DFDE43CFCE8A4A4
:1003F0002EC8C5F03DFDE43CFCEFA4FFE5F028FE6F
:10040000E43DFDE43CFC22BB010689828A83E022B4
:100410005002E722BBFE02E32289828A83E4932210
:10042000BB010689828A83F0225002F722BBFE01BB
:10043000F322FAE6FB0808E6F925F0F618E6CA3AD0
:10044000F622D083D082F8E4937012740193700D79
:10045000A3A393F8740193F5828883E473740293E1
:100460006860EFA3A3A380DFE537242BF8E6053708
:10047000227828300702782BE475F001120432024A
:1004800004072000EB7F2ED2008018EF540F249039
:10049000D43440D4FF30040BEF24BFB41A0050030F
:1004A0002461FFE53860021538053BE53B70020525
:1004B0003A30070D7828E475F001120432EF020497
:1004C00020020E337403D2078003E4C207F5378B92
:1004D000288A29892AE4F538F53AF53BE53860079A
:1004E0007F201204A380F57539FFC201C200C20249
:1004F000C203C205C206C208120471FF700D3007A4
:10050000057F001204B4AF3BAE3A22B4255FC2D5DA
:10051000C204120471FF24D0B40A00501A75F00A04
:10052000783830D50508B6FF0106C6A426F620D5D2
:10053000047002D20380D924CFB41A00EF5004C251
:10054000E5D2040206B4D20180C6D20080C0D20235
:1005500080BCD2D580BAD20580B47F201204A320FB
:1005600002077401B5380040F1120468FF1204A3B9
:100570000204DCD208D2068095120468FB120468DB
:10058000FA120468F94A4B700679857A077BFF20D6
:10059000022EE538602A7E008E82758300120104E7
:1005A00060060EEE653970F0C2D5EBC0E0EAC0E03F
:1005B000E9C0E0EE1206FBD0E0F9D0E0FAD0E0FBB3
:1005C000120407FF60AAEBC0E0EAC0E0E9C0E01255
:1005D00004A3D0E02401F9D0E03400FAD0E0FBE538
:1005E000390460DCD539D980877BFF7A0679F7D268
:1005F00002809C791080027908C206C2088008D265
:10060000D5790A8004790AC2D5E539047002F53932
:10061000E4FAFDFEFF120468FC7B082001131204BB
:1006200068FD7B1030000A120468FE120468FF7B2C
:1006300020EC3382D592D55013C3E43000069FFFDF
:10064000E49EFEE42001039DFDE49CFCE4CBF8C2A3
:1006500001EC700CCFCECDCCE824F8F870F3801705
:10066000C3EF33FFEE33FEED33FDEC33FCEB33FB36
:10067000994002FB0FD8E9EB300105F8D0E0C448FF
:10068000B201C0E00AEC4D4E4F78207B0070C2EA08
:10069000B5390040BCC0E01206FDD0F0D0E020012A
:1006A00004C4C0E0C4B201C0F012048CD0F0D5F094
:1006B000EB0204DC12044205795305F358054A4C59
:1006C00005464205F74F05FF4405FF49055F430610
:1006D000055505E94605E94505E94707A550054ED5
:1006E0002D05522E05752B055623057320078E2ADE
:1006F000050E480000056D3F3F3F00790AA2D52056
:100700000314300509B910020404B9080104A2D584
:100710002006025001042002689202B538005034CD
:10072000C0E07F203003197F30A2027206720550AC
:100730000F120754C202C206C205C2087F30800FE2
:10074000300503E9C0E01204A3300503D0E0F9D07E
:10075000E0B538CC3005177F30B9100C1204A37FF8
:10076000583004077F788003B908031204A33002CD
:10077000057F2D0204A37F202008F87F2B2006F39D
:1007800022920280CF286E756C6C2900D20112046F
:10079000683001F8C201783830D50108F602050E3C
:1007A0002D504349581204682403B405004001E465
:1007B0009007A093120494743A120494D2037538EB
:1007C000040205F3E561B40106120D11E4F561754B
:1007D0001900751A00751D00751E0E751B00751C1D
:1007E000037862E6FF7E007D02120A0F7863E6FF5F
:1007F0007E007D02120A0F7864E6FF7E00120B0A6B
:100800007865E6FF7E00120B517866E6FF7E0012E7
:100810000C217868E6FF7E007D02120A0F78B9E6A7
:10082000FF08E690002ACFF0A3EFF0751900751AC3
:100830002A751B00751C017D02E4FFFE120A0FE4FD
:10084000F51DF51E7440251EF5827410351DF583C7
:10085000E493FDE51E25E0FFE51D33FE742A2FF528
:100860008274003EF583E4F0A3EDF0051EE51E70F2
:1008700002051D6403451D70CB751900751A2A7594
:100880001D00751E02751B00751C037D02E4FFFE32
:10089000120A0FE4F51DF51E743D251EF582741035
:1008A000351DF583E493FDE51E25E0FFE51D33FED0
:1008B000742A2FF58274003EF583E4F0A3EDF00571
:1008C0001EE51E7002051D6403451D70CB751900E1
:1008D000751A2A751D00751E02751B00751C037D97
:1008E00002E4FFFE120A0F120FE3E490002AF0A3C5
:1008F000F090002BE004F0700690002AE004F090E5
:10090000002AE07004A3E0643270E62212101C7822
:100910007FE4F6D8FD7581BB020956020CA0E49372
:10092000A3F8E493A34003F68001F208DFF48029E2
:10093000E493A3F85407240CC8C333C4540F4420D1
:10094000C8834004F456800146F6DFE4800B0102C0
:1009500004081020408090099BE47E019360BCA3B2
:10096000FF543F30E509541FFEE493A360010ECF0E
:1009700054C025E060A840B8E493A3FAE493A3F838
:10098000E493A3C8C582C8CAC583CAF0A3C8C582F8
:10099000C8CAC583CADFE9DEE780BE013D03014660
:1009A00002013E020240000A024401F402420064D5
:1009B000013C01013F0041003200014A00014700B3
:1009C00020246BFF0BDE03FF0BE703FF0BEB03FFA2
:1009D0000BF303FF0BFA03FF0C0103FF0C0801FFED
:1009E0000C1103FF0C1A03016000016101010E00EC
:1009F000010A0002080000015500025300000256DF
:100A00000096C10902500000015D01015800008DEF
:100A100022E51A2FFFE5193EF5248F25E4F523C3BF
:100A2000E523951CE4951B5041E522B402157BFF9C
:100A30007A0D7906852582852483E0F52BA3E0F5E0
:100A40002C8014E522B401127BFF7A0D790B8525E9
:100A500082852483E0F52B1204CAE51E2525F525A1
:100A6000E51D3524F524052380B52285A923E54716
:100A7000704EE5AE700675AEA575AEF17D087F05CA
:100A8000120F557D077F06120F557D807F04120FD0
:100A90005575A9747DC07F04120F557F327E00EF1B
:100AA0001F70011EEF4E70F77DC07F04120F557549
:100AB000B5208523A9E5A930E7FB754EC075470130
:100AC00022AE07EE90103493FF12102CEE901037E8
:100AD00093FF120FBF75F00EEEA42404F582E5F02B
:100AE0003400F583E0FCA3E04C6008EE90103A93EC
:100AF000FF80027F0412101012000A120EDD8E2EEB
:100B00008F2F120003AE2EAF2F22E51A2FFFE5190B
:100B10003EF5248F25E4F522AF22C3EF951CE49522
:100B20001B502D852582852483E0F523E5237BFF5B
:100B300030E6067A0D790080047A0D79031204CA32
:100B4000E51E2525F525E51D3524F524052280C85B
:100B500022E51A2FFFE5193EF5248F25E4F522AF93
:100B600022C3EF951CE4951B502D85258285248397
:100B7000E0F523E5237BFF30E7067A0D790080045A
:100B80007A0D79031204CAE51E2525F525E51D35E4
:100B900024F524052280C8227BFF7A0D795B12049C
:100BA000CAE4F523E52375F003A42478F582E43440
:100BB0000DF583E493FB740193FA7402938B2B8AF3
:100BC0002CF52D7BFF7A0D79701204CA0523E523DD
:100BD000C3940340CF7BFF7A0D79760204CA424169
:100BE00053454C494E45005241570053494E4741E9
:100BF000435400444542414354005444454C5441FD
:100C00000045585056414C004E4F495345455354AA
:100C100000494E41435454485200414354544852B1
:100C200000E51A2FFFE5193EF5238F24E4F522C3D2
:100C3000E522951CE4951B50297BFF7A0D790685EA
:100C40002482852383E075F010A4F52C85F02B1207
:100C500004CAE51E2524F524E51D3523F5230522C8
:100C600080CD22E526D394014023E4F527E527C370
:100C70009526502B85232B85242C85252D85272EE5
:100C80007BFF7A0C79E51204CA052780E085232BC7
:100C900085242C85252D7BFF7A0C79ED1204CA2240
:100CA000120D8143800143A68053A07F120F791259
:100CB00017191210538019121223309804C298D2B7
:100CC0009112171DEF7004E50A600A1207C4D29151
:100CD000E4F50A80E2C29180DE25626400200025EE
:100CE000750025730025735F25626420002573203D
:100CF00000207C20002A48454144455220000A003B
:100D00003120003020002535752000253362752004
:100D100000120FE3120B98120FDAE4F522E52275A8
:100D2000F004A4246BF9E4FAFB78237C00FDFE7F39
:100D3000041200DE120C63120FD10522E522C394C7
:100D40000940DA120FE3020E5A4353302E320043A9
:100D500053302E33004353312E35002A53454E5322
:100D60004F525F44455343524950544F5253200011
:100D70002573207C20000A00FF0D49FF0D4FFF0D59
:100D80005585A722121007120F13121020120F867A
:100D9000120FAB120FB5120FF5120E7F120FFE12CB
:100DA0001024120F6B120F93120FEC1210288522D1
:100DB000A722E4F5AA53F3C043F3C053F3C743F3A8
:100DC00018F5FEF5FDF5D2F5D343AF1075B0885395
:100DD000B0DF43B010E5B030E5FBE4F5B0228F287A
:100DE0008E278D268C2575AC14E54E54F7F5AD0095
:100DF00075AC188528AD008527AD008526AD00852A
:100E000025AD0075AC14854EAD22C0E0C0D075D0C4
:100E100000C0060509E509AE0870020508146464FF
:100E20004E7009B291F508F509750A01D006D0D0C7
:100E3000D0E032EFB40A07740D120E3E740A3098F7
:100E400011A899B8130CC2983098FDA899C298B807
:100E500011F63099FDC299F599227F00C374049F61
:100E60007862F6C374009F08F6C374079F08F608FB
:100E7000F6C374069F08F6C3740A9F7868F6227555
:100E8000AC0675AD07E5AC20E7FB75AC0875AD1495
:100E9000E5AC20E7FB75AC0475AD80E5AC20E7FB65
:100EA000228E238F24120EC0AE23AF247C407D10EF
:100EB0001203DAE47BE87A03F9F81202F5020DDE98
:100EC00075AC10E4F5AD00F5AD00F5AD00F5AD0085
:100ED000120F4E7F04120FA0EF20E1F72275B088A9
:100EE00053B0DF43B010E5B030E5FB85EE3085ED63
:100EF00031E4F5B0AE30AF3122759810758D965350
:100F00008EF4438E08858D8B53890F438920D28EB2
:100F1000D29922E5D85440FFE5DF5480FE53D8BF74
:100F200053DF7F75DC08EF42D8EE42DF22120F3F1D
:100F3000120A6BAF41AE40120EA17F1C020F5D750D
:100F4000B520E4F54FF54DF54BF548F54922E54E52
:100F50004402FD7F04EF4410F5AC8DAD22EF54FC4C
:100F6000424EE54E4FFD7F04020F55AF8875880055
:100F7000758D96758BFF8F8822120EF943A410751C
:100F8000E10175E3402275A41075A41075F1F175A7
:100F9000D40E22758E08758922438810438840221A
:100FA000EF4490F5AC000000AFAD2275A50275D5F9
:100FB000E075F21F2275E34075E34075E1012253AD
:100FC000AFF8EF540742AF225380F35390DF020093
:100FD000037BFF7A0C79F10204CA7BFF7A0C79F566
:100FE0000204CA7BFF7A0C79FE0204CA1217191296
:100FF0001053D2992243B280E5B230E6FB22E4F5E9
:10100000A9E5A930E7FB22E4F5A753D9BFF5D9221A
:10101000EF5407F5AA22120FC8020DB253D9BF220E
:1010200075C9102275B6402275A89A228FAB22028C
:101030000F2D222202030D01010103030346464640
:101040001E1E1EFFFFFFE53CB4010475520222750F
:10105000520122E4F523E523C3953D501DE4FDFC38
:10106000AF231185AF23314AAF23117CAF2311FC8D
:10107000AF2311BC31DA052380DC80CA75F00EEF96
:10108000F15CE4F0228F24E4FFEFC3954650137522
:10109000F00EE524F1D2EF1203C5ECF0A3EDF00F52
:1010A00080E775F00EE524F15CE4F0E52490104350
:1010B00093FF75F00EE524F1A5EFF0228F2475F073
:1010C0000EEFF15CE0543FF075F00EE524F151E4D1
:1010D000F0F16EE524901040F193E52425E024AD75
:1010E000F8A60608A607F16EE52490103DF193E5F9
:1010F0002425E024B3F8A60608A60722F164E0FC44
:10110000A3E0FD75F00EEFF18DECF0A3EDF075F0BE
:101110000EEF90000C1203C5E4F0A3F0E53DC3947C
:101120000450028007E53DC394085005751F808078
:101130000AE53DC394105003751F40E53DC394205C
:101140005004751F1022751F08228F24E4F526F520
:1011500027F52BF52AF529F5281132E4F52BF52A88
:10116000F529F52875F00EE524F168E4F0A3F0F513
:1011700026F527AF24120AC1E4FCFDE52B2FFFE57D
:101180002A3EFEED3529FDEC35288F2B8E2A8D2940
:10119000F5280527E52770020526C39408E526945F
:1011A0000040D0AF2BAE2AAD29AC287803120387BC
:1011B0008E2C8F2D75F00EE524F168E52CF0A3E55B
:1011C0002DF0E4F525E525C39546500CAD2DAC2C4E
:1011D000AF2431E7052580ED0133E4F55CF55BF5DF
:1011E0005AF559755D01228C2E8D2FEF75F00EA4E6
:1011F0002400F9740035F0FA7B0190002A1203D123
:101200001201AEFF900002E5F08FF0120230E52EE1
:10121000852FF00202118F22120AC1AD07AC06AF72
:101220002280C4E478BBF678BBE6FFC3953D501F2F
:10123000511678BBE6FFD1AE78BBE6FF717278BB82
:10124000E6FF915978BBE6FFB13B78BB0680D8E456
:10125000F55EF55FF522E522C3953D5066E4FDAFEE
:101260002271628E238F24715EEF4E7004AE23AF25
:1012700024D3E5249FE5239E400CE5249FF526E535
:10128000239EF525800BC3EF9524F526EE9523F5D7
:1012900025AD22AF26AE25D1527525008F26D3E588
:1012A00026945AE5259400400AE526946EE5259497
:1012B00000400CE526255FF55FE525355EF55E050A
:1012C000228093E47F07FEFDFCAB5CAA5BA95AA8D1
:1012D0005912026AE47B08F19FC004C005C006C031
:1012E00007AE5EAF5FE4FCFD781012039AE47B0862
:1012F000F19FD003D002D001D00012025D8F5C8E2E
:101300005B8D5A8C59E4FBFA7901F8AF5CAE5BADAA
:101310005AAC591202F5C006C007AF3DAB077A00C0
:10132000E4F9F8D007D0061202F578B9A60608A6A7
:101330000718E6FE08E6FFC3940AEE9400500BE59A
:10134000587004755D0122155822C3EF940FEE9476
:1013500000500775580A755D0222755D03227D01F4
:10136000AF2275F00EEFF1D2ED1203C5E0FEA3E05F
:10137000FF228F22E4FD716290002AEEF0A3EFF0CD
:10138000715E90002CF1C87002A3E0700F90002AEB
:10139000E0FFA3E090002CCFF0A3EFF0AF22D14309
:1013A00090002EF1C8FEA3E0FFD3F1E74021F1C089
:1013B000FF90002DE02FFD90002CE03EFCD3F1DCEF
:1013C000400D90002DE02FFF90002CE03EF1B890F2
:1013D000002CE0FEA3E0FFC3F1E75023F1C0FFC300
:1013E00090002DE09FFD90002CE09EFCC3F1DC50AE
:1013F0000EC390002DE09FFF90002CE09EF1B8E41A
:1014000090002CF0A3F0AF1FAB07FAF9F875F00EBF
:10141000E522F18D1203AD1202F5F184E51F24FFE0
:10142000FFE434FFFEE4FCFD12026AC004C005C004
:1014300006C007AF1FAB07E4FAF9F890002A1203C1
:10144000AD1202F5D003D002D001D00012025D75BA
:10145000F00EE522F18D0203B98F22EF25E024ADD5
:10146000F8E6F52508E6F526EF25E024B3F8E6F5DD
:101470002308E6F524E4FDFCD1808E278F28F15760
:10148000E054807028C3E5289524E527952350046F
:10149000AF22C129D3E5289524E52795234035AF10
:1014A00022B104EF602EF157E04480F022D3E5280A
:1014B0009526E52795254004AF22C11EC3E5289552
:1014C00026E5279525500DAF2291D5EF6006F157FF
:1014D000E0547FF022F14BE0FF540FFD640F6001F8
:1014E0000DF14DEF54F0F0F14DE04DF0ED640F6073
:1014F00007D113EDC39F4009F14DE054F0F07F0197
:10150000227F0022F14BE0FFC4540FFD640F600105
:101510000DF14DEF540FF0F14DE0FFEDC454F0FC30
:10152000EF4CF0ED640F6007D113EDC39F4009F15C
:101530004DE0540FF07F01227F0022F162E0F5239D
:10154000A3E0F524D134EF6002C112E55D640175BA
:10155000F00E6007E52290000A8005E52290000069
:101560001203C5E0F525A3E0F526D3E5269524E58D
:101570002595234007F1AB240AF08010C3E526959A
:1015800024E52595235005F1AB24F6F0F1ABFFD30C
:10159000648094E4401075F00EE522F168E475F083
:1015A00001120198805FC3EF6480941C5064E55D74
:1015B0006401703FE52290104393C313FF75F00E52
:1015C000E522F168E0FCA3E0C39FFFEC9400FE7508
:1015D000F00EE522F18DE0FCA3E0FDC39FEC9E75CB
:1015E000F00EE52290000450121203C5ECF0A3EDBA
:1015F000F0801275F00EE5229000041203C574FF0E
:10160000F5F012019875F00EE5229000091203C55D
:10161000E4F022E55D6401AF3E60027F0F2275F0C9
:101620000EEFF151E054F0F02275F00EEFF151E0C1
:10163000540FF02275F00EEFF15CE07F0030E6020F
:101640007F012275F00EEFF1A5E075F010A4FFAE5A
:10165000F0228E278F28AF05D143EE3395E0FDFCB5
:10166000C004F186AE27AF287C007D641203DAD077
:10167000001202F5D3EF94FFEE940040027FFF22A8
:10168000AB07D1FEC3EF9DF52AEE9CF52975F00E50
:10169000EBF168E0FEA3E0FFD3E52A9FE5299E4039
:1016A00009E52A9FFFE5299EFE22E4FEFF22F16262
:1016B000E0FEA3E0FDAC0675F00EEFF1A5E075F0DD
:1016C00008A4AEF02DF524EE3CF523C3E5249DE5FA
:1016D000239C5005F157E4F022AF22D1FED3EF95C1
:1016E00024EE952375F00EE52290000740081203C2
:1016F000C5E04440F0221203C5E054BFF022E55D8E
:1017000075F00EB40106EF9000008004EF90000A1F
:101710001203C5E0FEA3E0FF221116012FE4F5231A
:10172000F522E522C3953D5010AF22F13CBF0105E3
:101730007523018004052280E9AF232275F00EEFA6
:10174000F15CE07F0030E7027F0122AE0775F00E0A
:10175000EE9000080203C575F00EE5229000070226
:1017600003C58F2275F00EEF9000040203C575F0DB
:101770000EE5249000061203C5E0FF7E007C007D8C
:10178000101203DAA804A905AA06AB072290000AE2
:101790000203C593FFE4FCFDFE12026AE47B64FAD7
:1017A000F9F80202F59000060203C575F00EE52275
:1017B0009000091203C5E02290002AF0A3EFF02266
:1017C00090002EE0FEA3E022EEF0A3EFF090002CBC
:1017D000E0229000001203C575F0022290002BE079
:1017E0009D90002AE09C2290002BE09F90002AE030
:0217F0009E2237
:00000001FF
