:020000040000FA
:1000000002092553F1F353F2DF2222020CFD120EF6
:100010008143A41075E10175E34022020FA553D975
:10002000BF2222020FA6E709F608DFFA8046E70999
:10003000F208DFFA803E88828C83E709F0A3DFFABA
:100040008032E309F608DFFA8078E309F208DFFA84
:10005000807088828C83E309F0A3DFFA8064898250
:100060008A83E0A3F608DFFA805889828A83E0A3B6
:10007000F208DFFA804C80D280FA80C680D4806992
:1000800080F28033801080A680EA809A80A880DA8F
:1000900080E280CA803389828A83ECFAE493A3C821
:1000A000C582C8CCC583CCF0A3C8C582C8CCC583E3
:1000B000CCDFE9DEE7800D89828A83E493A3F6082A
:1000C000DFF9ECFAA9F0EDFB2289828A83ECFAE0F1
:1000D000A3C8C582C8CCC583CCF0A3C8C582C8CC90
:1000E000C583CCDFEADEE880DB89828A83E493A3E0
:1000F000F208DFF980CC88F0EF60010E4E60C38813
:10010000F0ED2402B4040050B9F582EB2402B404EB
:100110000050AF232345822390007673BB010CE58A
:100120008229F582E5833AF583E0225006E92582AB
:10013000F8E622BBFE06E92582F8E222E58229F5EF
:1001400082E5833AF583E49322EF8DF0A4A8F0CF03
:100150008CF0A428CE8DF0A42EFE22BC000BBE0095
:1001600029EF8DF084FFADF022E4CCF875F008EFB4
:100170002FFFEE33FEEC33FCEE9DEC984005FCEED9
:100180009DFE0FD5F0E9E4CEFD22EDF8F5F0EE840A
:1001900020D21CFEADF075F008EF2FFFED33FD40CF
:1001A00007985006D5F0F222C398FD0FD5F0EA2249
:1001B000C5F0F8A3E028F0C5F0F8E58215827002DA
:1001C0001583E038F022BB010A89828A83E0F5F0CA
:1001D000A3E022500687F009E71922BBFE07E3F5EA
:1001E000F009E3192289828A83E493F5F07401937C
:1001F00022BB0110E58229F582E5833AF583E0F51B
:10020000F0A3E0225009E92582F886F008E622BB37
:10021000FE0AE92582F8E2F5F008E222E5832AF5F4
:1002200083E993F5F0A3E99322BB010A89828A83CB
:10023000F0E5F0A3F0225006F709A7F01922BBFE63
:1002400006F3E5F009F31922F8BB0111E58229F55F
:1002500082E5833AF583E8F0E5F0A3F0225009E95E
:100260002582C8F608A6F022BBFE09E92582C8F25D
:10027000E5F008F222EF2BFFEE3AFEED39FDEC3807
:10028000FC22E88FF0A4CC8BF0A42CFCE98EF0A427
:100290002CFC8AF0EDA42CFCEA8EF0A4CDA8F08B07
:1002A000F0A42DCC3825F0FDE98FF0A42CCD35F04D
:1002B000FCEB8EF0A4FEA9F0EB8FF0A4CFC5F02EDE
:1002C000CD39FEE43CFCEAA42DCE35F0FDE43CFC47
:1002D0002275F008758200EF2FFFEE33FECD33CD8F
:1002E000CC33CCC58233C5829BED9AEC99E58298DC
:1002F000400CF582EE9BFEED9AFDEC99FC0FD5F0DB
:10030000D6E4CEFBE4CDFAE4CCF9A88222B800C151
:10031000B90059BA002DEC8BF084CFCECDFCE5F0BE
:10032000CBF97818EF2FFFEE33FEED33FDEC33FC05
:10033000EB33FB10D703994004EB99FB0FD8E5E4AE
:10034000F9FA227818EF2FFFEE33FEED33FDEC3390
:10035000FCC933C910D7059BE99A4007EC9BFCE91F
:100360009AF90FD8E0E4C9FAE4CCFB2275F010EF5B
:100370002FFFEE33FEED33FDCC33CCC833C810D79E
:10038000079BEC9AE899400AED9BFDEC9AFCE899F2
:10039000F80FD5F0DAE4CDFBE4CCFAE4C8F922E8B2
:1003A000600FECC313FCED13FDEE13FEEF13FFD84B
:1003B000F122E8600FEFC333FFEE33FEED33FDECC7
:1003C00033FCD8F122E0FCA3E0FDA3E0FEA3E0FFB4
:1003D00022ECF0A3EDF0A3EEF0A3EFF022A425822F
:1003E000F582E5F03583F58322EBF0A3EAF0A3E98B
:1003F000F022EC8EF0A4CCC5F0CCCDF8EFA4CEC5A5
:10040000F02DFDE43CFCE8A42EC8C5F03DFDE43C25
:10041000FCEFA4FFE5F028FEE43DFDE43CFC22BB3C
:10042000010689828A83E0225002E722BBFE02E3B2
:100430002289828A83E49322BB010689828A83F01F
:10044000225002F722BBFE01F322FAE6FB0808E67F
:10045000F925F0F618E6CA3AF622D083D082F8E4FD
:10046000937012740193700DA3A393F8740193F524
:10047000828883E4737402936860EFA3A3A380DF90
:10048000E537242BF8E60537227828300702782B49
:10049000E475F00112044A02041F2000EB7F2ED203
:1004A000008018EF540F2490D43440D4FF30040B54
:1004B000EF24BFB41A0050032461FFE53860021531
:1004C00038053BE53B7002053A30070D7828E475A6
:1004D000F00112044AEF020438020DDD7403D20762
:1004E0008003E4C207F5378B288A29892AE4F53886
:1004F000F53AF53BE53860077F201204BB80F575BF
:1005000039FFC201C200C202C203C205C206C2084C
:10051000120489FF700D3007057F001204CCAF3B39
:10052000AE3A22B4255FC2D5C204120489FF24D09A
:10053000B40A00501A75F00A783830D50508B6FFAD
:100540000106C6A426F620D5047002D20380D92461
:10055000CFB41A00EF5004C2E5D2040206CCD20197
:1005600080C6D20080C0D20280BCD2D580BAD2056B
:1005700080B47F201204BB2002077401B53800400C
:10058000F1120480FF1204BB0204F4D208D20680E8
:1005900095120480FB120480FA120480F94A4B7011
:1005A00006799D7A077BFF20022EE538602A7E00BF
:1005B0008E8275830012011C60060EEE653970F0A4
:1005C000C2D5EBC0E0EAC0E0E9C0E0EE120713D00C
:1005D000E0F9D0E0FAD0E0FB12041FFF60AAEBC004
:1005E000E0EAC0E0E9C0E01204BBD0E02401F9D0A9
:1005F000E03400FAD0E0FBE5390460DCD539D9807D
:10060000877BFF7A07790FD202809C79108002796C
:1006100008C206C2088008D2D5790A8004790AC2C5
:10062000D5E539047002F539E4FAFDFEFF120480C5
:10063000FC7B08200113120480FD7B1030000A129D
:100640000480FE120480FF7B20EC3382D592D550CB
:1006500013C3E43000069FFFE49EFEE42001039DE7
:10066000FDE49CFCE4CBF8C201EC700CCFCECDCC09
:10067000E824F8F870F38017C3EF33FFEE33FEED94
:1006800033FDEC33FCEB33FB994002FB0FD8E9EB75
:10069000300105F8D0E0C448B201C0E00AEC4D4E8C
:1006A0004F78207B0070C2EAB5390040BCC0E01230
:1006B0000715D0F0D0E0200104C4C0E0C4B201C0EE
:1006C000F01204A4D0F0D5F0EB0204F412045A05A1
:1006D0009153060B5805624C055E42060F4F0617F4
:1006E00044061749057743061D5506014606014590
:1006F00006014707BD5005662D056A2E058D2B05A1
:100700006E23058B2007A62A052648000005853F95
:100710003F3F00790AA2D5200314300509B9100221
:100720000404B9080104A2D52006025001042002E5
:10073000689202B538005034C0E07F203003197F42
:1007400030A20272067205500F12076CC202C20676
:10075000C205C2087F30800F300503E9C0E01204F3
:10076000BB300503D0E0F9D0E0B538CC3005177FB9
:1007700030B9100C1204BB7F583004077F78800317
:10078000B908031204BB3002057F2D0204BB7F2091
:100790002008F87F2B2006F322920280CF286E7566
:1007A0006C6C2900D2011204803001F8C201783843
:1007B00030D50108F60205262D5043495812048011
:1007C0002403B405004001E49007B8931204AC740C
:1007D0003A1204ACD20375380402060BE5676401D3
:1007E0007006120C83E4F56775600075610075642E
:1007F0000075650E756200756303786AE6FF7E001A
:100800007D02120A28786BE6FF7E007D02120A281C
:10081000786CE6FF7E00120B72786DE6FF7E0012A8
:100820000BB9786EE6FF7E00120C007870E6FF7E52
:10083000007D02120A2878C1E6FF08E690002ACF60
:10084000F0A3EFF075600075612A756200756301B1
:100850007D02E4FFFE120A28E4F564F5657466255E
:1008600065F58274103564F583E493FDE56525E054
:10087000FFE56433FE742A2FF58274003EF583E4AD
:10088000F0A3EDF00565E565700205646403456459
:1008900070CB75600075612A7564007565027562BC
:1008A000007563037D02E4FFFE120A28E4F564F597
:1008B0006574632565F58274103564F583E493FDF2
:1008C000E56525E0FFE56433FE742A2FF5827400A8
:1008D0003EF583E4F0A3EDF00565E565700205647F
:1008E0006403456470CB75600075612A756400759A
:1008F00065027562007563037D02E4FFFE120A283B
:10090000120F6FE490002AF0A3F090002BE004F0A7
:10091000700690002AE004F090002AE07004A3E042
:10092000643270E62212001E787FE4F6D8FD7581ED
:10093000C302096F020CC1E493A3F8E493A340033C
:10094000F68001F208DFF48029E493A3F854072429
:100950000CC8C333C4540F4420C8834004F45680E9
:100960000146F6DFE4800B0102040810204080906D
:1009700009B4E47E019360BCA3FF543F30E5095401
:100980001FFEE493A360010ECF54C025E060A84091
:10099000B8E493A3FAE493A3F8E493A3C8C582C888
:1009A000CAC583CAF0A3C8C582C8CAC583CADFE95D
:1009B000DEE780BE013D03014602013E0202400027
:1009C0000A024401F402420064013C01013F00417B
:1009D000003200014A00014700202473FF0FA703E3
:1009E000FF0FB003FF0FB403FF0FBC03FF0FC303E0
:1009F000FF0FCA03FF0FD101FF0FDA03FF0FE3035D
:100A000001660001670102680000010C0001080096
:100A10000155000253000002560096C10902500021
:100A200000015D01015800008D22E5612FFFE560A6
:100A30003EF5248F25E4F523C3E5239563E4956211
:100A40005043E522640270157BFF7A1079178525E3
:100A500082852483E0F52BA3E0F52C8015E5226444
:100A60000170127BFF7A10791C852582852483E032
:100A7000F52B1204E2E5652525F525E5643524F519
:100A800024052380B32285A923E547704FAFAEEF3D
:100A9000700675AEA575AEF17D087F05120EEC7D72
:100AA000077F06120EEC7D807F04120EEC75A97490
:100AB0007DC07F04120EEC7F327E00EF1F70011E9E
:100AC000EF4E70F77DC07F04120EEC75B5208523C4
:100AD000A9E5A930E7FB754EC0754701227BFF7A77
:100AE0001079341204E2E4F523C3E52394037480FF
:100AF0009480502CE52375F003A42451F582E4344E
:100B000010F583E493FB740193FA7402938B2B8AA0
:100B10002CF52D7BFF7A1079491204E2052380C958
:100B20007BFF7A10794F0204E2AE07EE90105A93E1
:100B3000FF120F9EEE90105D93FF120F4B75F00E9B
:100B4000EEA42404F582E5F03400F583E0FCA3E094
:100B50004C6008EE90106093FF80027F04120F8AB1
:100B600012000A120E658E2E8F2F120003AE2EAFCA
:100B70002F22E5612FFFE5603EF5248F25E4F52265
:100B8000AF22C3EF9563E49562502D8525828524BD
:100B900083E0F523E5237BFF30E6067A10791180A8
:100BA000047A1079141204E2E5652525F525E5643B
:100BB0003524F524052280C822E5612FFFE5603E3B
:100BC000F5248F25E4F522AF22C3EF9563E4956207
:100BD000502D852582852483E0F523E5237BFF3096
:100BE000E7067A10791180047A1079141204E2E58C
:100BF000652525F525E5643524F524052280C822E0
:100C0000E5612FFFE5603EF5238F24E4F522C3E57F
:100C1000229563E4956250297BFF7A107917852429
:100C200082852383E075F010A4F52C85F02B120447
:100C3000E2E5652524F524E5643523F523052280C6
:100C4000CD22D3E5269401748094804023E4F527D7
:100C5000E527C39526502B85232B85242C85252D10
:100C600085272E7BFF7A0F79F61204E2052780E0B4
:100C700085232B85242C85252D7BFF7A0F79FE1269
:100C800004E222120F6F120ADD120F66E4F522C38E
:100C9000E5229409748094805021E52275F004A423
:100CA0002473F9E4FAFB78237C00FDFE7F04120034
:100CB000F6120C42120F5D052280D4120F6F020E45
:100CC00004120D2C4380015380FE43A68053A07F65
:100CD000C28D12000E12173B1210798015C28112BC
:100CE000124B309814E599B46103120C831207DC9F
:100CF000D280E4F508C29880E4C28080E0C0E0C001
:100D0000D075D000C006C0070569E569AE687002FD
:100D1000056814FFBE270CBF1009756800756900CF
:100D2000750801D007D006D0D0D0E03285A72212B6
:100D30000F81120F41120F96120EB1120F19120FDE
:100D400023120F2D120DB2120F02120E9B120F372B
:100D5000120F78120F9A8522A722E4F5AA53F3C046
:100D600043F3C053F3C743F318F5FEF5FDF5D2F591
:100D7000D343AF1075B08853B0DF43B010E5B03047
:100D8000E5FBE4F5B0228F288E278D268C2575ACE7
:100D900014E54E54F7F5AD0075AC188528AD008507
:100DA00027AD008526AD008525AD0075AC14854EB8
:100DB000AD2275AC0575AD28E5AC5480648060F853
:100DC00075AC0875AD14E5AC5480648060F875AC02
:100DD0000475AD80E5AC5480648060F822EFB40AFD
:100DE00007740D120DE8740A309811A899B8130C05
:100DF000C2983098FDA899C298B811F63099FDC2F2
:100E000099F599227F00C374049F786AF6C3740031
:100E10009F08F6C374079F08F608F6C374069F0878
:100E2000F6C3740A9F7870F6228E238F24120E4820
:100E3000AE23AF247C407D101203F2E47BE87A03FA
:100E4000F9F812030D020D8675AC10E4F5AD00F54E
:100E5000AD00F5AD00F5AD00120EE57F04120F0EEA
:100E6000EF20E1F72275B08853B0DF43B010E5B052
:100E700030E5FB85EE3085ED31E4F5B0AE30AF31D5
:100E800022759810758D96538EF4438E08858D8B40
:100E900053890F438920D28ED29922AF885388AFCD
:100EA000758D96758BFFEF5440FEEF54104E4288BF
:100EB000227580FE75A41075A41075F1F175D40E1D
:100EC00075D7FE22120ED6120A86AF41AE40120E20
:100ED000297F1C020EF475B520E4F54FF54DF54B56
:100EE000F548F54922E54E4402FD7F04EF4410F534
:100EF000AC8DAD22EF54FC424EE54E4FFD7F040217
:100F00000EECE4F5A9E5A95480648070F822EF4462
:100F100090F5AC000000AFAD2275A50275D5E07567
:100F2000F21F2275E34075E34075E1012243B28070
:100F3000E5B2544060FA22758E08758922438850C4
:100F40002253DF7F75DC08E4F5EC2253AFF8EF5451
:100F50000742AF225380F35390DF0200037BFF7AF6
:100F60001079020204E27BFF7A1079060204E27B28
:100F7000FF7A10790F0204E212173B121079D2990E
:100F800022E4F5A753D9BFF5D922EF5407F5AA22D9
:100F9000120F54020D5A75C9102275A882228FAB08
:100FA00022020EC4223232424153454C494E450082
:100FB0005241570053494E47414354004445424132
:100FC0004354005444454C54410045585056414CFC
:100FD000004E4F49534545535400494E41435454E4
:100FE0004852004143545448520025626400200096
:100FF00025750025730025735F2562642000257325
:101000002000207C20002A48454144455220000A07
:101010000031200030200025357520002533627511
:1010200020004353302E33004353302E32004353BD
:10103000312E35002A53454E534F525F444553439A
:10104000524950544F525320002573207C20000AEF
:1010500000FF1022FF1028FF102E03020D070707C4
:101060000505054646461E1E1EFFFFFFE53CB40172
:10107000047552022275520122E4F523E523C3953B
:101080003D501DE4FDFCAF2311ABAF233170AF2306
:1010900011A2AF233122AF2311E25102052380DCDC
:1010A00080CA75F00EEFF152E4F0228F24E4FFEFD6
:1010B000C39546501375F00EE524F1BCEF1203DD25
:1010C000ECF0A3EDF00F80E775F00EE524F152E4AB
:1010D000F0E52490106993FF75F00EE524F1A6EF7A
:1010E000F0228F2475F00EEFF152E0543FF075F0CE
:1010F0000EE524F147E4F0F16FE524901066F194D9
:10110000E52425E024B5F8A60608A607F16FE52436
:10111000901063F194E52425E024BBF8A60608A608
:101120000722F15AE0FCA3E0FD75F00EEFF18EEC22
:10113000F0A3EDF075F00EEF90000C1203DDE4F07B
:10114000A3F0E53DC3940450028007E53DC3940835
:101150005005751F80800AE53DC394105003751F2C
:1011600040E53DC394205004751F1022751F0822CE
:101170008F24E4F526F527F52BF52AF529F5281215
:101180000022E4F52BF52AF529F52875F00EE52463
:10119000F15EE4F0A3F0F526F527AF24120B29E465
:1011A000FCFDE52B2FFFE52A3EFEED3529FDEC3554
:1011B000288F2B8E2A8D29F5280527E52770020513
:1011C00026C39408E526940040D0AF2BAE2AAD2963
:1011D000AC28780312039F8E2C8F2D75F00EE5241A
:1011E000F15EE52CF0A3E52DF0E4F525E525C395AA
:1011F00046500CAD2DAC2CAF24510F052580ED02CF
:101200000FA4E4F55CF55BF55AF559755D01228C88
:101210002E8D2FEF75F00EA42400F9740035F0FA2E
:101220007B0190002A1203E91201C6FF900002E53B
:10123000F08FF0120248E52E852FF00202298F224E
:10124000120B29AD07AC06AF2280C4E478C3F67850
:10125000C3E6FFC3953D501F513E78C3E6FFD1D092
:1012600078C3E6FF719A78C3E6FF918178C3E6FF01
:10127000B16378C30680D8E4F55EF55FF522E52218
:10128000C3953D5066E4FDAF22718A8E238F247191
:1012900086EF4E7004AE23AF24D3E5249FE5239E52
:1012A000400CE5249FF526E5239EF525800BC3EF32
:1012B0009524F526EE9523F525AD22AF26AE25D152
:1012C000747525008F26D3E526945AE525940040B1
:1012D0000AE526946EE5259400400CE526255FF589
:1012E0005FE525355EF55E05228093E47F07FEFD10
:1012F000FCAB5CAA5BA95AA859120282E47B08F1F4
:10130000A0C004C005C006C007AE5EAF5FE4FCFD30
:1013100078101203B2E47B08F1A0D003D002D00110
:10132000D0001202758F5C8E5B8D5A8C59E4FBFAEB
:101330007901F8AF5CAE5BAD5AAC5912030DC00633
:10134000C007AF3DAB077A00E4F9F8D007D006122A
:10135000030D78C1A60608A60718E6FE08E6FFC337
:10136000940AEE9400500BE5587004755D01221547
:101370005822C3EF940FEE9400500775580A755D1C
:101380000222755D03227D01AF2275F00EEFF1BCE4
:10139000ED1203DDE0FEA3E0FF228F22E4FD718A5F
:1013A00090002AEEF0A3EFF0718690002CF1C67049
:1013B00002A3E0700F90002AE0FFA3E090002CCF82
:1013C000F0A3EFF0AF22D16590002EF1C6FEA3E0AE
:1013D000FFD3F1DB4021F1B4FF90002DE02FFD9011
:1013E000002CE03EFCD3F1D0400D90002DE02FFF0B
:1013F00090002CE03EF1AC90002CE0FEA3E0FFC397
:10140000F1DB5023F1B4FFC390002DE09FFD90006D
:101410002CE09EFCC3F1D0500EC390002DE09FFF46
:1014200090002CE09EF1ACE490002CF0A3F0AF1FF4
:10143000AB07FAF9F875F00EE522F18E1203C5122A
:10144000030DF185E51F24FFFFE434FFFEE4FCFDFE
:10145000120282C004C005C006C007AF1FAB07E47C
:10146000FAF9F890002A1203C512030DD003D00236
:10147000D001D00012027575F00EE522F18E020344
:10148000D18F22EF25E024B5F8E6F52508E6F5260C
:10149000EF25E024BBF8E6F52308E6F524E4FDFC9F
:1014A000D1A28E278F28F14DE054807028C3E52803
:1014B0009524E52795235004AF22C14BD3E5289509
:1014C00024E52795234035AF22B12CEF602EF14D56
:1014D000E04480F022D3E5289526E52795254004B1
:1014E000AF22C140C3E5289526E5279525500DAFCD
:1014F0002291FDEF6006F14DE0547FF022F141E0D2
:10150000FF540FFD640F60010DF143EF54F0F0F153
:1015100043E04DF0ED640F6007D135EDC39F400906
:10152000F143E054F0F07F01227F0022F141E0FF1F
:10153000C4540FFD640F60010DF143EF540FF0F13F
:1015400043E0FFEDC454F0FCEF4CF0ED640F600796
:10155000D135EDC39F4009F143E0540FF07F0122E4
:101560007F0022F158E0F523A3E0F524D156EF6087
:1015700002C134E55D640175F00E6007E52290005C
:101580000A8005E5229000001203DDE0F525A3E0C6
:10159000F526D3E5269524E52595234008F164E05A
:1015A000240AF08011C3E5269524E52595235006ED
:1015B000F164E024F6F0F164E0FFD3648094E44049
:1015C0001075F00EE522F15EE475F0011201B080B5
:1015D0005FC3EF6480941C505BE55D6401703FE580
:1015E0002290106993C313FF75F00EE522F15EE0BF
:1015F000FCA3E0C39FFFEC9400FE75F00EE522F122
:101600008EE0FCA3E0FDC39FEC9E75F00EE52290FA
:10161000000450121203DDECF0A3EDF0801275F01F
:101620000EE5229000041203DD74FFF5F01201B004
:10163000F164E4F022E55D6401AF3E60027F0F22B9
:1016400075F00EEFF147E054F0F02275F00EEFF177
:1016500047E0540FF02275F00EEFF152E07F0030BA
:10166000E6027F012275F00EEFF1A6E075F010A4FE
:10167000FFAEF0228E278F28AF05D165EE3395E0BF
:10168000FDFCC004F187AE27AF287C007D64120307
:10169000F2D00012030DD3EF94FFEE940040027FCE
:1016A000FF22AB07F120C3EF9DF52AEE9CF52975CB
:1016B000F00EEBF15EE0FEA3E0FFD3E52A9FE52903
:1016C0009E4009E52A9FFFE5299EFE22E4FEFF22B7
:1016D000F158E0FEA3E0FDAC0675F00EEFF1A6E0D8
:1016E00075F008A4AEF02DF524EE3CF523C3E524F7
:1016F0009DE5239C5005F14DE4F022AF22F120D36B
:10170000EF9524EE952375F00EE522900007400832
:101710001203DDE04440F0221203DDE054BFF0226A
:10172000E55D75F00EB40106EF9000008004EF90C7
:10173000000A1203DDE0FEA3E0FF22120F90020F69
:10174000A1AE0775F00EEE9000080203DD75F00EF5
:10175000E5229000070203DD8F2275F00EEF900066
:10176000040203DD75F00EE5229000090203DD7529
:10177000F00EE5249000061203DDE0FF7E007C0001
:101780007D101203F2A804A905AA06AB0722900057
:101790000A0203DD93FFE4FCFDFE120282E47B6497
:1017A000FAF9F802030D9000060203DD90002AF01A
:1017B000A3EFF02290002EE0FEA3E02290000012A2
:1017C00003DD75F00222EEF0A3EFF090002CE02292
:1017D00090002BE09D90002AE09C2290002BE09F3F
:0617E00090002AE09E22A9
:00000001FF
